{
  "contractName": "DecentralizedVotingSystem",
  "abi": [
    {
      "inputs": [],
      "stateMutability": "nonpayable",
      "type": "constructor"
    },
    {
      "anonymous": false,
      "inputs": [
        {
          "indexed": false,
          "internalType": "address",
          "name": "chairpersonAddress",
          "type": "address"
        }
      ],
      "name": "ChairpersonLogged",
      "type": "event"
    },
    {
      "anonymous": false,
      "inputs": [
        {
          "indexed": false,
          "internalType": "uint256",
          "name": "pollId",
          "type": "uint256"
        },
        {
          "indexed": false,
          "internalType": "string",
          "name": "pollName",
          "type": "string"
        }
      ],
      "name": "PollCreated",
      "type": "event"
    },
    {
      "inputs": [],
      "name": "chairperson",
      "outputs": [
        {
          "internalType": "address",
          "name": "",
          "type": "address"
        }
      ],
      "stateMutability": "view",
      "type": "function",
      "constant": true
    },
    {
      "inputs": [
        {
          "internalType": "uint256",
          "name": "",
          "type": "uint256"
        }
      ],
      "name": "polls",
      "outputs": [
        {
          "internalType": "string",
          "name": "name",
          "type": "string"
        },
        {
          "internalType": "uint256",
          "name": "totalVoters",
          "type": "uint256"
        },
        {
          "internalType": "uint256",
          "name": "totalVotesCast",
          "type": "uint256"
        }
      ],
      "stateMutability": "view",
      "type": "function",
      "constant": true
    },
    {
      "inputs": [
        {
          "internalType": "string",
          "name": "pollName",
          "type": "string"
        },
        {
          "internalType": "string[]",
          "name": "proposalNames",
          "type": "string[]"
        }
      ],
      "name": "createPoll",
      "outputs": [],
      "stateMutability": "nonpayable",
      "type": "function"
    },
    {
      "inputs": [
        {
          "internalType": "uint256",
          "name": "pollId",
          "type": "uint256"
        },
        {
          "internalType": "address",
          "name": "voter",
          "type": "address"
        },
        {
          "internalType": "uint256",
          "name": "age",
          "type": "uint256"
        },
        {
          "internalType": "bool",
          "name": "isMember",
          "type": "bool"
        }
      ],
      "name": "giveRightToVote",
      "outputs": [],
      "stateMutability": "nonpayable",
      "type": "function"
    },
    {
      "inputs": [
        {
          "internalType": "uint256",
          "name": "pollId",
          "type": "uint256"
        },
        {
          "internalType": "uint256",
          "name": "proposalIndex",
          "type": "uint256"
        }
      ],
      "name": "vote",
      "outputs": [],
      "stateMutability": "nonpayable",
      "type": "function"
    },
    {
      "inputs": [
        {
          "internalType": "uint256",
          "name": "pollId",
          "type": "uint256"
        }
      ],
      "name": "checkVotingOutcome",
      "outputs": [
        {
          "internalType": "string",
          "name": "outcome",
          "type": "string"
        }
      ],
      "stateMutability": "view",
      "type": "function",
      "constant": true
    },
    {
      "inputs": [
        {
          "internalType": "uint256",
          "name": "pollId",
          "type": "uint256"
        }
      ],
      "name": "resetVotes",
      "outputs": [],
      "stateMutability": "nonpayable",
      "type": "function"
    },
    {
      "inputs": [],
      "name": "getPollsCount",
      "outputs": [
        {
          "internalType": "uint256",
          "name": "",
          "type": "uint256"
        }
      ],
      "stateMutability": "view",
      "type": "function",
      "constant": true
    },
    {
      "inputs": [
        {
          "internalType": "uint256",
          "name": "pollId",
          "type": "uint256"
        }
      ],
      "name": "getTopTwoWinners",
      "outputs": [
        {
          "internalType": "string",
          "name": "result",
          "type": "string"
        }
      ],
      "stateMutability": "view",
      "type": "function",
      "constant": true
    },
    {
      "inputs": [
        {
          "internalType": "uint256",
          "name": "pollId",
          "type": "uint256"
        },
        {
          "internalType": "uint256",
          "name": "proposalIndex",
          "type": "uint256"
        }
      ],
      "name": "getProposalName",
      "outputs": [
        {
          "internalType": "string",
          "name": "",
          "type": "string"
        }
      ],
      "stateMutability": "view",
      "type": "function",
      "constant": true
    },
    {
      "inputs": [
        {
          "internalType": "uint256",
          "name": "pollId",
          "type": "uint256"
        }
      ],
      "name": "getProposalsCount",
      "outputs": [
        {
          "internalType": "uint256",
          "name": "",
          "type": "uint256"
        }
      ],
      "stateMutability": "view",
      "type": "function",
      "constant": true
    },
    {
      "inputs": [
        {
          "internalType": "uint256",
          "name": "pollId",
          "type": "uint256"
        }
      ],
      "name": "getPollDetails",
      "outputs": [
        {
          "internalType": "string",
          "name": "pollName",
          "type": "string"
        },
        {
          "internalType": "string",
          "name": "result",
          "type": "string"
        }
      ],
      "stateMutability": "view",
      "type": "function",
      "constant": true
    },
    {
      "inputs": [
        {
          "internalType": "uint256",
          "name": "index",
          "type": "uint256"
        }
      ],
      "name": "getPollName",
      "outputs": [
        {
          "internalType": "string",
          "name": "",
          "type": "string"
        }
      ],
      "stateMutability": "view",
      "type": "function",
      "constant": true
    }
  ],
  "bytecode": "0x60806040523480156200001157600080fd5b50336000806101000a81548173ffffffffffffffffffffffffffffffffffffffff021916908373ffffffffffffffffffffffffffffffffffffffff1602179055507f1310a3117d7c666e69b5da935081f7a02a332886d3ec59f1a5a2e6d8ba47194f60008054906101000a900473ffffffffffffffffffffffffffffffffffffffff16604051620000a39190620000c2565b60405180910390a162000113565b620000bc81620000df565b82525050565b6000602082019050620000d96000830184620000b1565b92915050565b6000620000ec82620000f3565b9050919050565b600073ffffffffffffffffffffffffffffffffffffffff82169050919050565b612a4f80620001236000396000f3fe608060405234801561001057600080fd5b50600436106100cf5760003560e01c80637e3d71c31161008c578063ad9158df11610066578063ad9158df14610239578063b384abef14610269578063e099591614610285578063f1f217ec146102a3576100cf565b80637e3d71c3146101ba5780639a0040e4146101d6578063ac2f007414610207576100cf565b80631b1aa8b8146100d45780632e4176cf14610104578063341273dc146101225780633572a926146101525780635a8098c9146101825780636d1c32c21461019e575b600080fd5b6100ee60048036038101906100e99190611dcd565b6102d3565b6040516100fb9190612522565b60405180910390f35b61010c610372565b60405161011991906123b0565b60405180910390f35b61013c60048036038101906101379190611dcd565b610396565b60405161014991906123cb565b60405180910390f35b61016c60048036038101906101679190611dcd565b61073f565b60405161017991906123cb565b60405180910390f35b61019c60048036038101906101979190611df6565b61081c565b005b6101b860048036038101906101b39190611dcd565b610b67565b005b6101d460048036038101906101cf9190611d61565b610ea8565b005b6101f060048036038101906101eb9190611dcd565b61108c565b6040516101fe9291906123ed565b60405180910390f35b610221600480360381019061021c9190611dcd565b6111c2565b60405161023093929190612424565b60405180910390f35b610253600480360381019061024e9190611dcd565b611284565b60405161026091906123cb565b60405180910390f35b610283600480360381019061027e9190611e59565b6115bd565b005b61028d6117d9565b60405161029a9190612522565b60405180910390f35b6102bd60048036038101906102b89190611e59565b6117e6565b6040516102ca91906123cb565b60405180910390f35b6000600180549050821061031c576040517f08c379a0000000000000000000000000000000000000000000000000000000008152600401610313906124e2565b60405180910390fd5b60018281548110610356577f4e487b7100000000000000000000000000000000000000000000000000000000600052603260045260246000fd5b9060005260206000209060060201600101805490509050919050565b60008054906101000a900473ffffffffffffffffffffffffffffffffffffffff1681565b606060018054905082106103df576040517f08c379a00000000000000000000000000000000000000000000000000000000081526004016103d6906124e2565b60405180910390fd5b60006001838154811061041b577f4e487b7100000000000000000000000000000000000000000000000000000000600052603260045260246000fd5b90600052602060002090600602019050600080600080600085600401546064876005015461044991906126bd565b610453919061268c565b90506046811015610484576040518060800160405280604781526020016129d360479139965050505050505061073a565b60005b866001018054905081101561060657858760010182815481106104d3577f4e487b7100000000000000000000000000000000000000000000000000000000600052603260045260246000fd5b90600052602060002090600202016001015411156105495785945083925086600101818154811061052d577f4e487b7100000000000000000000000000000000000000000000000000000000600052603260045260246000fd5b90600052602060002090600202016001015495508093506105f3565b84876001018281548110610586577f4e487b7100000000000000000000000000000000000000000000000000000000600052603260045260246000fd5b90600052602060002090600202016001015411156105f2578660010181815481106105da577f4e487b7100000000000000000000000000000000000000000000000000000000600052603260045260246000fd5b90600052602060002090600202016001015494508092505b5b80806105fe90612807565b915050610487565b50600086600501546064868861061c9190612717565b61062691906126bd565b610630919061268c565b90506005811015610662576040518060600160405280603f8152602001612994603f913997505050505050505061073a565b86600101848154811061069e577f4e487b7100000000000000000000000000000000000000000000000000000000600052603260045260246000fd5b90600052602060002090600202016000016106b8876119e4565b8860010185815481106106f4577f4e487b7100000000000000000000000000000000000000000000000000000000600052603260045260246000fd5b906000526020600020906002020160000161070e886119e4565b604051602001610721949392919061230e565b6040516020818303038152906040529750505050505050505b919050565b60606001828154811061077b577f4e487b7100000000000000000000000000000000000000000000000000000000600052603260045260246000fd5b90600052602060002090600602016000018054610797906127d5565b80601f01602080910402602001604051908101604052809291908181526020018280546107c3906127d5565b80156108105780601f106107e557610100808354040283529160200191610810565b820191906000526020600020905b8154815290600101906020018083116107f357829003601f168201915b50505050509050919050565b60008054906101000a900473ffffffffffffffffffffffffffffffffffffffff1673ffffffffffffffffffffffffffffffffffffffff163373ffffffffffffffffffffffffffffffffffffffff16146108aa576040517f08c379a00000000000000000000000000000000000000000000000000000000081526004016108a1906124c2565b60405180910390fd5b60018054905084106108f1576040517f08c379a00000000000000000000000000000000000000000000000000000000081526004016108e8906124e2565b60405180910390fd5b60006001858154811061092d577f4e487b7100000000000000000000000000000000000000000000000000000000600052603260045260246000fd5b906000526020600020906006020190508060020160008573ffffffffffffffffffffffffffffffffffffffff1673ffffffffffffffffffffffffffffffffffffffff16815260200190815260200160002060000160009054906101000a900460ff16156109cf576040517f08c379a00000000000000000000000000000000000000000000000000000000081526004016109c6906124a2565b60405180910390fd5b601283101580156109dd5750815b15610b25576040518060800160405280600015158152602001600081526020018481526020018315158152508160020160008673ffffffffffffffffffffffffffffffffffffffff1673ffffffffffffffffffffffffffffffffffffffff16815260200190815260200160002060008201518160000160006101000a81548160ff021916908315150217905550602082015181600101556040820151816002015560608201518160030160006101000a81548160ff021916908315150217905550905050806004016000815480929190610ab690612807565b919050555080600301849080600181540180825580915050600190039060005260206000200160009091909190916101000a81548173ffffffffffffffffffffffffffffffffffffffff021916908373ffffffffffffffffffffffffffffffffffffffff160217905550610b60565b6040517f08c379a0000000000000000000000000000000000000000000000000000000008152600401610b5790612482565b60405180910390fd5b5050505050565b60008054906101000a900473ffffffffffffffffffffffffffffffffffffffff1673ffffffffffffffffffffffffffffffffffffffff163373ffffffffffffffffffffffffffffffffffffffff1614610bf5576040517f08c379a0000000000000000000000000000000000000000000000000000000008152600401610bec906124c2565b60405180910390fd5b6001805490508110610c3c576040517f08c379a0000000000000000000000000000000000000000000000000000000008152600401610c33906124e2565b60405180910390fd5b600060018281548110610c78577f4e487b7100000000000000000000000000000000000000000000000000000000600052603260045260246000fd5b9060005260206000209060060201905060005b8160030180549050811015610e20576000826002016000846003018481548110610cde577f4e487b7100000000000000000000000000000000000000000000000000000000600052603260045260246000fd5b9060005260206000200160009054906101000a900473ffffffffffffffffffffffffffffffffffffffff1673ffffffffffffffffffffffffffffffffffffffff1673ffffffffffffffffffffffffffffffffffffffff16815260200190815260200160002060000160006101000a81548160ff0219169083151502179055506000826002016000846003018481548110610da1577f4e487b7100000000000000000000000000000000000000000000000000000000600052603260045260246000fd5b9060005260206000200160009054906101000a900473ffffffffffffffffffffffffffffffffffffffff1673ffffffffffffffffffffffffffffffffffffffff1673ffffffffffffffffffffffffffffffffffffffff168152602001908152602001600020600101819055508080610e1890612807565b915050610c8b565b5060005b8160010180549050811015610e99576000826001018281548110610e71577f4e487b7100000000000000000000000000000000000000000000000000000000600052603260045260246000fd5b9060005260206000209060020201600101819055508080610e9190612807565b915050610e24565b50600081600501819055505050565b60008054906101000a900473ffffffffffffffffffffffffffffffffffffffff1673ffffffffffffffffffffffffffffffffffffffff163373ffffffffffffffffffffffffffffffffffffffff1614610f36576040517f08c379a0000000000000000000000000000000000000000000000000000000008152600401610f2d906124c2565b60405180910390fd5b600060018081600181540180825580915050039060005260206000209060060201905082816000019080519060200190610f71929190611b90565b5060005b825181101561103d57816001016040518060400160405280858481518110610fc6577f4e487b7100000000000000000000000000000000000000000000000000000000600052603260045260246000fd5b6020026020010151815260200160008152509080600181540180825580915050600190039060005260206000209060020201600090919091909150600082015181600001908051906020019061101d929190611b90565b50602082015181600101555050808061103590612807565b915050610f75565b507f65d5ac2bf1bca69566bef1affdfca5bb37b9577fc0b3af4c7c4638225e67b39c600180805490506110709190612717565b8460405161107f92919061253d565b60405180910390a1505050565b60608060018054905083106110d6576040517f08c379a00000000000000000000000000000000000000000000000000000000081526004016110cd906124e2565b60405180910390fd5b600060018481548110611112577f4e487b7100000000000000000000000000000000000000000000000000000000600052603260045260246000fd5b90600052602060002090600602019050806000018054611131906127d5565b80601f016020809104026020016040519081016040528092919081815260200182805461115d906127d5565b80156111aa5780601f1061117f576101008083540402835291602001916111aa565b820191906000526020600020905b81548152906001019060200180831161118d57829003601f168201915b505050505092506111ba84610396565b915050915091565b600181815481106111d257600080fd5b90600052602060002090600602016000915090508060000180546111f5906127d5565b80601f0160208091040260200160405190810160405280929190818152602001828054611221906127d5565b801561126e5780601f106112435761010080835404028352916020019161126e565b820191906000526020600020905b81548152906001019060200180831161125157829003601f168201915b5050505050908060040154908060050154905083565b606060018054905082106112cd576040517f08c379a00000000000000000000000000000000000000000000000000000000081526004016112c4906124e2565b60405180910390fd5b600060018381548110611309577f4e487b7100000000000000000000000000000000000000000000000000000000600052603260045260246000fd5b90600052602060002090600602019050600081600401546064836005015461133191906126bd565b61133b919061268c565b90506046811015611368576040518060800160405280604781526020016129d360479139925050506115b8565b6000806000805b85600101805490508110156114e857838660010182815481106113bb577f4e487b7100000000000000000000000000000000000000000000000000000000600052603260045260246000fd5b906000526020600020906002020160010154111561142e57839250856001018181548110611412577f4e487b7100000000000000000000000000000000000000000000000000000000600052603260045260246000fd5b90600052602060002090600202016001015493508091506114d5565b8286600101828154811061146b577f4e487b7100000000000000000000000000000000000000000000000000000000600052603260045260246000fd5b90600052602060002090600202016001015411156114d4578560010181815481106114bf577f4e487b7100000000000000000000000000000000000000000000000000000000600052603260045260246000fd5b90600052602060002090600202016001015492505b5b80806114e090612807565b91505061136f565b5060008560050154606484866114fe9190612717565b61150891906126bd565b611512919061268c565b90506005811015611543576040518060600160405280603f8152602001612994603f913996505050505050506115b8565b85600101828154811061157f577f4e487b7100000000000000000000000000000000000000000000000000000000600052603260045260246000fd5b90600052602060002090600202016000016040516020016115a0919061238e565b60405160208183030381529060405296505050505050505b919050565b6001805490508210611604576040517f08c379a00000000000000000000000000000000000000000000000000000000081526004016115fb906124e2565b60405180910390fd5b600060018381548110611640577f4e487b7100000000000000000000000000000000000000000000000000000000600052603260045260246000fd5b9060005260206000209060060201905060008160020160003373ffffffffffffffffffffffffffffffffffffffff1673ffffffffffffffffffffffffffffffffffffffff16815260200190815260200160002090508060000160009054906101000a900460ff16156116e7576040517f08c379a00000000000000000000000000000000000000000000000000000000081526004016116de90612462565b60405180910390fd5b81600101805490508310611730576040517f08c379a000000000000000000000000000000000000000000000000000000000815260040161172790612502565b60405180910390fd5b60018160000160006101000a81548160ff02191690831515021790555082816001018190555081600501600081548092919061176b90612807565b91905055508160010183815481106117ac577f4e487b7100000000000000000000000000000000000000000000000000000000600052603260045260246000fd5b906000526020600020906002020160010160008154809291906117ce90612807565b919050555050505050565b6000600180549050905090565b6060600180549050831061182f576040517f08c379a0000000000000000000000000000000000000000000000000000000008152600401611826906124e2565b60405180910390fd5b60018381548110611869577f4e487b7100000000000000000000000000000000000000000000000000000000600052603260045260246000fd5b90600052602060002090600602016001018054905082106118bf576040517f08c379a00000000000000000000000000000000000000000000000000000000081526004016118b690612502565b60405180910390fd5b600183815481106118f9577f4e487b7100000000000000000000000000000000000000000000000000000000600052603260045260246000fd5b90600052602060002090600602016001018281548110611942577f4e487b7100000000000000000000000000000000000000000000000000000000600052603260045260246000fd5b9060005260206000209060020201600001805461195e906127d5565b80601f016020809104026020016040519081016040528092919081815260200182805461198a906127d5565b80156119d75780601f106119ac576101008083540402835291602001916119d7565b820191906000526020600020905b8154815290600101906020018083116119ba57829003601f168201915b5050505050905092915050565b60606000821415611a2c576040518060400160405280600181526020017f30000000000000000000000000000000000000000000000000000000000000008152509050611b8b565b6000808390505b60008114611a5d578180611a4690612807565b925050600a81611a56919061268c565b9050611a33565b60008267ffffffffffffffff811115611a9f577f4e487b7100000000000000000000000000000000000000000000000000000000600052604160045260246000fd5b6040519080825280601f01601f191660200182016040528015611ad15781602001600182028036833780820191505090505b5090505b60008514611b8457600183611aea9190612717565b9250600a85611af99190612850565b6030611b059190612636565b60f81b818481518110611b41577f4e487b7100000000000000000000000000000000000000000000000000000000600052603260045260246000fd5b60200101907effffffffffffffffffffffffffffffffffffffffffffffffffffffffffffff1916908160001a905350600a85611b7d919061268c565b9450611ad5565b8093505050505b919050565b828054611b9c906127d5565b90600052602060002090601f016020900481019282611bbe5760008555611c05565b82601f10611bd757805160ff1916838001178555611c05565b82800160010185558215611c05579182015b82811115611c04578251825591602001919060010190611be9565b5b509050611c129190611c16565b5090565b5b80821115611c2f576000816000905550600101611c17565b5090565b6000611c46611c418461259e565b61256d565b9050808382526020820190508260005b85811015611c865781358501611c6c8882611d22565b845260208401935060208301925050600181019050611c56565b5050509392505050565b6000611ca3611c9e846125ca565b61256d565b905082815260208101848484011115611cbb57600080fd5b611cc6848285612793565b509392505050565b600081359050611cdd8161294e565b92915050565b600082601f830112611cf457600080fd5b8135611d04848260208601611c33565b91505092915050565b600081359050611d1c81612965565b92915050565b600082601f830112611d3357600080fd5b8135611d43848260208601611c90565b91505092915050565b600081359050611d5b8161297c565b92915050565b60008060408385031215611d7457600080fd5b600083013567ffffffffffffffff811115611d8e57600080fd5b611d9a85828601611d22565b925050602083013567ffffffffffffffff811115611db757600080fd5b611dc385828601611ce3565b9150509250929050565b600060208284031215611ddf57600080fd5b6000611ded84828501611d4c565b91505092915050565b60008060008060808587031215611e0c57600080fd5b6000611e1a87828801611d4c565b9450506020611e2b87828801611cce565b9350506040611e3c87828801611d4c565b9250506060611e4d87828801611d0d565b91505092959194509250565b60008060408385031215611e6c57600080fd5b6000611e7a85828601611d4c565b9250506020611e8b85828601611d4c565b9150509250929050565b611e9e8161274b565b82525050565b6000611eaf8261260f565b611eb9818561261a565b9350611ec98185602086016127a2565b611ed28161293d565b840191505092915050565b6000611ee88261260f565b611ef2818561262b565b9350611f028185602086016127a2565b80840191505092915050565b60008154611f1b816127d5565b611f25818661262b565b94506001821660008114611f405760018114611f5157611f84565b60ff19831686528186019350611f84565b611f5a856125fa565b60005b83811015611f7c57815481890152600182019150602081019050611f5d565b838801955050505b50505092915050565b6000611f9a600f8361262b565b91507f5365636f6e642057696e6e65723a2000000000000000000000000000000000006000830152600f82019050919050565b6000611fda60178361261a565b91507f596f75206861766520616c726561647920766f7465642e0000000000000000006000830152602082019050919050565b600061201a60028361262b565b91507f29200000000000000000000000000000000000000000000000000000000000006000830152600282019050919050565b600061205a60548361261a565b91507f566f746572206973206e6f7420656c696769626c6520746f20766f74652e204d60008301527f757374206265206174206c65617374203138207965617273206f6c6420616e6460208301527f206120636f6d6d756e697479206d656d6265722e0000000000000000000000006040830152606082019050919050565b60006120e6600e8361262b565b91507f46697273742057696e6e65723a200000000000000000000000000000000000006000830152600e82019050919050565b6000612126601c8361261a565b91507f54686520766f7465722068617320616c726561647920766f7465642e000000006000830152602082019050919050565b6000612166600f8361262b565b91507f5468652077696e6e65722069733a2000000000000000000000000000000000006000830152600f82019050919050565b60006121a660098361262b565b91507f2028566f7465733a2000000000000000000000000000000000000000000000006000830152600982019050919050565b60006121e660228361261a565b91507f4f6e6c79206368616972706572736f6e2063616e20657865637574652074686960008301527f732e0000000000000000000000000000000000000000000000000000000000006020830152604082019050919050565b600061224c60108361261a565b91507f496e76616c696420706f6c6c2049442e000000000000000000000000000000006000830152602082019050919050565b600061228c60038361262b565b91507f292c2000000000000000000000000000000000000000000000000000000000006000830152600382019050919050565b60006122cc60178361261a565b91507f496e76616c69642070726f706f73616c20696e6465782e0000000000000000006000830152602082019050919050565b61230881612789565b82525050565b6000612319826120d9565b91506123258287611f0e565b915061233082612199565b915061233c8286611edd565b91506123478261227f565b915061235282611f8d565b915061235e8285611f0e565b915061236982612199565b91506123758284611edd565b91506123808261200d565b915081905095945050505050565b600061239982612159565b91506123a58284611f0e565b915081905092915050565b60006020820190506123c56000830184611e95565b92915050565b600060208201905081810360008301526123e58184611ea4565b905092915050565b600060408201905081810360008301526124078185611ea4565b9050818103602083015261241b8184611ea4565b90509392505050565b6000606082019050818103600083015261243e8186611ea4565b905061244d60208301856122ff565b61245a60408301846122ff565b949350505050565b6000602082019050818103600083015261247b81611fcd565b9050919050565b6000602082019050818103600083015261249b8161204d565b9050919050565b600060208201905081810360008301526124bb81612119565b9050919050565b600060208201905081810360008301526124db816121d9565b9050919050565b600060208201905081810360008301526124fb8161223f565b9050919050565b6000602082019050818103600083015261251b816122bf565b9050919050565b600060208201905061253760008301846122ff565b92915050565b600060408201905061255260008301856122ff565b81810360208301526125648184611ea4565b90509392505050565b6000604051905081810181811067ffffffffffffffff821117156125945761259361290e565b5b8060405250919050565b600067ffffffffffffffff8211156125b9576125b861290e565b5b602082029050602081019050919050565b600067ffffffffffffffff8211156125e5576125e461290e565b5b601f19601f8301169050602081019050919050565b60008190508160005260206000209050919050565b600081519050919050565b600082825260208201905092915050565b600081905092915050565b600061264182612789565b915061264c83612789565b9250827fffffffffffffffffffffffffffffffffffffffffffffffffffffffffffffffff0382111561268157612680612881565b5b828201905092915050565b600061269782612789565b91506126a283612789565b9250826126b2576126b16128b0565b5b828204905092915050565b60006126c882612789565b91506126d383612789565b9250817fffffffffffffffffffffffffffffffffffffffffffffffffffffffffffffffff048311821515161561270c5761270b612881565b5b828202905092915050565b600061272282612789565b915061272d83612789565b9250828210156127405761273f612881565b5b828203905092915050565b600061275682612769565b9050919050565b60008115159050919050565b600073ffffffffffffffffffffffffffffffffffffffff82169050919050565b6000819050919050565b82818337600083830152505050565b60005b838110156127c05780820151818401526020810190506127a5565b838111156127cf576000848401525b50505050565b600060028204905060018216806127ed57607f821691505b60208210811415612801576128006128df565b5b50919050565b600061281282612789565b91507fffffffffffffffffffffffffffffffffffffffffffffffffffffffffffffffff82141561284557612844612881565b5b600182019050919050565b600061285b82612789565b915061286683612789565b925082612876576128756128b0565b5b828206905092915050565b7f4e487b7100000000000000000000000000000000000000000000000000000000600052601160045260246000fd5b7f4e487b7100000000000000000000000000000000000000000000000000000000600052601260045260246000fd5b7f4e487b7100000000000000000000000000000000000000000000000000000000600052602260045260246000fd5b7f4e487b7100000000000000000000000000000000000000000000000000000000600052604160045260246000fd5b6000601f19601f8301169050919050565b6129578161274b565b811461296257600080fd5b50565b61296e8161275d565b811461297957600080fd5b50565b61298581612789565b811461299057600080fd5b5056fe57696e6e696e67206d617267696e206973206c657373207468616e2035252e20566f74696e67206e6565647320746f206265207265696e697469617465642e566f74696e672070617274696369706174696f6e20776173206c657373207468616e203730252e20566f74696e67206e6565647320746f206265207265696e697469617465642ea26469706673582212204c6c7046fe8875c44873a900db73d06f959856e5186c426fa2b5ef7c3a7d290c64736f6c63430008000033",
  "immutableReferences": {},
  "source": "// SPDX-License-Identifier: MIT\r\npragma solidity ^0.8.0;\r\n\r\ncontract DecentralizedVotingSystem {\r\n    struct Voter {\r\n        bool voted;\r\n        uint vote;\r\n        uint age;\r\n        bool isMember;\r\n    }\r\n\r\n    struct Proposal {\r\n        string name;\r\n        uint voteCount;\r\n    }\r\n\r\n    struct Poll {\r\n        string name;\r\n        Proposal[] proposals;\r\n        mapping(address => Voter) voters;\r\n        address[] voterAddresses;\r\n        uint totalVoters;\r\n        uint totalVotesCast;\r\n    }\r\n\r\n    address public chairperson;\r\n    Poll[] public polls;\r\n\r\n    event ChairpersonLogged(address chairpersonAddress);\r\n    event PollCreated(uint pollId, string pollName);\r\n\r\n    modifier onlyChairperson() {\r\n        require(msg.sender == chairperson, \"Only chairperson can execute this.\");\r\n        _;\r\n    }\r\n\r\n    constructor() {\r\n        chairperson = msg.sender;\r\n        emit ChairpersonLogged(chairperson);\r\n    }\r\n\r\n    // Function to create a new poll\r\n    function createPoll(string memory pollName, string[] memory proposalNames) public onlyChairperson {\r\n        Poll storage newPoll = polls.push();\r\n        newPoll.name = pollName;\r\n        for (uint i = 0; i < proposalNames.length; i++) {\r\n            newPoll.proposals.push(Proposal({\r\n                name: proposalNames[i],\r\n                voteCount: 0\r\n            }));\r\n        }\r\n        emit PollCreated(polls.length - 1, pollName);\r\n    }\r\n\r\n    // Function to give a voter the right to vote in a specific poll\r\n    function giveRightToVote(uint pollId, address voter, uint age, bool isMember) public onlyChairperson {\r\n        require(pollId < polls.length, \"Invalid poll ID.\");\r\n        Poll storage poll = polls[pollId];\r\n        require(!poll.voters[voter].voted, \"The voter has already voted.\");\r\n        if (age >= 18 && isMember) {\r\n            poll.voters[voter] = Voter({\r\n                voted: false,\r\n                vote: 0,\r\n                age: age,\r\n                isMember: isMember\r\n            });\r\n            poll.totalVoters++;\r\n            poll.voterAddresses.push(voter);\r\n        } else {\r\n            revert(\"Voter is not eligible to vote. Must be at least 18 years old and a community member.\");\r\n        }\r\n    }\r\n\r\n    // Function for voters to cast their vote in a specific poll\r\n    function vote(uint pollId, uint proposalIndex) public {\r\n        require(pollId < polls.length, \"Invalid poll ID.\");\r\n        Poll storage poll = polls[pollId];\r\n        Voter storage sender = poll.voters[msg.sender];\r\n        require(!sender.voted, \"You have already voted.\");\r\n        require(proposalIndex < poll.proposals.length, \"Invalid proposal index.\");\r\n        sender.voted = true;\r\n        sender.vote = proposalIndex;\r\n        poll.totalVotesCast++;\r\n        poll.proposals[proposalIndex].voteCount++;\r\n    }\r\n\r\n    // Function to check voting outcome for a specific poll\r\n    function checkVotingOutcome(uint pollId) public view returns (string memory outcome) {\r\n        require(pollId < polls.length, \"Invalid poll ID.\");\r\n        Poll storage poll = polls[pollId];\r\n        uint participationPercentage = (poll.totalVotesCast * 100) / poll.totalVoters;\r\n\r\n        // Condition 1: If participation is less than 70%\r\n        if (participationPercentage < 70) {\r\n            return \"Voting participation was less than 70%. Voting needs to be reinitiated.\";\r\n        }\r\n\r\n        uint winningVoteCount = 0;\r\n        uint secondWinningVoteCount = 0;\r\n        uint winningProposalIndex = 0;\r\n\r\n        // Determine the winning proposal\r\n        for (uint i = 0; i < poll.proposals.length; i++) {\r\n            if (poll.proposals[i].voteCount > winningVoteCount) {\r\n                secondWinningVoteCount = winningVoteCount;\r\n                winningVoteCount = poll.proposals[i].voteCount;\r\n                winningProposalIndex = i;\r\n            } else if (poll.proposals[i].voteCount > secondWinningVoteCount) {\r\n                secondWinningVoteCount = poll.proposals[i].voteCount;\r\n            }\r\n        }\r\n\r\n        // Condition 2: If margin of victory is less than 5%\r\n        uint marginOfVictory = ((winningVoteCount - secondWinningVoteCount) * 100) / poll.totalVotesCast;\r\n        if (marginOfVictory < 5) {\r\n            return \"Winning margin is less than 5%. Voting needs to be reinitiated.\";\r\n        }\r\n\r\n        return string(abi.encodePacked(\"The winner is: \", poll.proposals[winningProposalIndex].name));\r\n    }\r\n\r\n    // Function to reset votes for a specific poll\r\n    function resetVotes(uint pollId) public onlyChairperson {\r\n        require(pollId < polls.length, \"Invalid poll ID.\");\r\n        Poll storage poll = polls[pollId];\r\n        for (uint i = 0; i < poll.voterAddresses.length; i++) {\r\n            poll.voters[poll.voterAddresses[i]].voted = false;\r\n            poll.voters[poll.voterAddresses[i]].vote = 0;\r\n        }\r\n        for (uint i = 0; i < poll.proposals.length; i++) {\r\n            poll.proposals[i].voteCount = 0;\r\n        }\r\n        poll.totalVotesCast = 0;\r\n    }\r\n\r\n    // Function to get the number of polls\r\n    function getPollsCount() public view returns (uint) {\r\n        return polls.length;\r\n    }\r\n\r\n    function getTopTwoWinners(uint pollId) public view returns (string memory result) {\r\n        require(pollId < polls.length, \"Invalid poll ID.\");\r\n        Poll storage poll = polls[pollId];\r\n\r\n        uint firstMax = 0;\r\n        uint secondMax = 0;\r\n        uint firstWinnerIndex = 0;\r\n        uint secondWinnerIndex = 0;\r\n\r\n        // Step 1: Calculate Voting Participation Percentage\r\n        uint participationPercentage = (poll.totalVotesCast * 100) / poll.totalVoters;\r\n\r\n        // Condition: If participation is less than 70%\r\n        if (participationPercentage < 70) {\r\n            return \"Voting participation was less than 70%. Voting needs to be reinitiated.\";\r\n        }\r\n\r\n        // Step 2: Determine the top two winners\r\n        for (uint i = 0; i < poll.proposals.length; i++) {\r\n            if (poll.proposals[i].voteCount > firstMax) {\r\n                secondMax = firstMax;\r\n                secondWinnerIndex = firstWinnerIndex;\r\n                firstMax = poll.proposals[i].voteCount;\r\n                firstWinnerIndex = i;\r\n            } else if (poll.proposals[i].voteCount > secondMax) {\r\n                secondMax = poll.proposals[i].voteCount;\r\n                secondWinnerIndex = i;\r\n            }\r\n        }\r\n\r\n        // Step 3: Calculate Winning Margin\r\n        uint marginOfVictory = ((firstMax - secondMax) * 100) / poll.totalVotesCast;\r\n        if (marginOfVictory < 5) {\r\n            return \"Winning margin is less than 5%. Voting needs to be reinitiated.\";\r\n        }\r\n\r\n        // Step 4: Return the top two winners and total votes if conditions are satisfied\r\n        return string(\r\n            abi.encodePacked(\r\n                \"First Winner: \", poll.proposals[firstWinnerIndex].name,\r\n                \" (Votes: \", uintToString(firstMax), \"), \",\r\n                \"Second Winner: \", poll.proposals[secondWinnerIndex].name,\r\n                \" (Votes: \", uintToString(secondMax), \") \"\r\n            )\r\n        );\r\n    }\r\n\r\n    // Utility function to convert uint to string\r\n    function uintToString(uint v) internal pure returns (string memory) {\r\n        if (v == 0) {\r\n            return \"0\";\r\n        }\r\n        uint digits;\r\n        uint temp = v;\r\n        while (temp != 0) {\r\n            digits++;\r\n            temp /= 10;\r\n        }\r\n        bytes memory buffer = new bytes(digits);\r\n        while (v != 0) {\r\n            digits -= 1;\r\n            buffer[digits] = bytes1(uint8(48 + v % 10));\r\n            v /= 10;\r\n        }\r\n        return string(buffer);\r\n    }\r\n\r\n    // Function to get proposal names for a specific poll\r\n    function getProposalName(uint pollId, uint proposalIndex) public view returns (string memory) {\r\n        require(pollId < polls.length, \"Invalid poll ID.\");\r\n        require(proposalIndex < polls[pollId].proposals.length, \"Invalid proposal index.\");\r\n        return polls[pollId].proposals[proposalIndex].name;\r\n    }\r\n\r\n    // Function to get the number of proposals for a specific poll\r\n    function getProposalsCount(uint pollId) public view returns (uint) {\r\n        require(pollId < polls.length, \"Invalid poll ID.\");\r\n        return polls[pollId].proposals.length;\r\n    }\r\n\r\n    function getPollDetails(uint pollId) public view returns (string memory pollName, string memory result) {\r\n        require(pollId < polls.length, \"Invalid poll ID.\");\r\n        Poll storage poll = polls[pollId];\r\n        pollName = poll.name;\r\n        result = getTopTwoWinners(pollId);\r\n        return (pollName, result);\r\n    }\r\n\r\n    function getPollName(uint index) public view returns (string memory) {\r\n        return polls[index].name; // Assuming `polls` is an array of Poll structs\r\n    }\r\n\r\n}\r\n",
  "sourcePath": "C:\\Users\\Student\\MyReactAppVotingSystem\\frontEnd\\decentralizedvotingsystem\\contracts\\DecentralizedVotingSystem.sol",
  "compiler": {
    "name": "solc",
    "version": "0.8.0+commit.c7dfd78e.Emscripten.clang"
  },
  "schemaVersion": "3.4.16",
  "updatedAt": "2024-12-16T19:50:37.658Z",
  "networkType": "ethereum",
  "devdoc": {
    "kind": "dev",
    "methods": {},
    "version": 1
  },
  "userdoc": {
    "kind": "user",
    "methods": {},
    "version": 1
  }
}